:020000040000FA
:060000002AEF02F01200DD
:020006001200E6
:0800080007EF00F01200DACF4F
:10001000E4FFE2CFDAFFE6529EAA0AD0AECF16FF87
:10002000800E0F011615176F0F01010E006F9E9ABB
:10003000F2A486D00F013C0E011901E102511CE12E
:100040003C0E031901E1045117E13C0E051901E1D1
:10005000065112E13C0E071901E108510DE13C0E79
:10006000091901E10A5108E10F01176B4F0E166FD4
:100070000F01010E006F64D00151021110E03C0E1F
:10008000011901E1025108E10F01176B410E166FD2
:100090000F01010E006F03D0012B000E022303514C
:1000A000041110E03C0E031901E1045108E10F01B5
:1000B000176B420E166F0F01010E006F03D0032B5A
:1000C000000E04230551061110E03C0E051901E154
:1000D000065108E10F01176B430E166F0F01010E59
:1000E000006F03D0052B000E06230751081110E006
:1000F0003C0E071901E1085108E10F01176B440E8E
:10010000166F0F01010E006F03D0072B000E08239E
:1001100009510A1110E03C0E091901E10A5108E1E8
:100120000F01176B450E166F0F01010E006F03D004
:10013000092B000E0A23DC0ED66E0B0ED76EF2943E
:08014000E552E5CFDAFF1100E2
:08014800010070040000000F2B
:0601500000000B0000009E
:0A0156000F01175102E157D801D044
:1001600001D812000F011651360A29E0020A1FE0D9
:10017000070A15E0010A0BE0030A01E044D080B24F
:1001800005D08082010E0F01016F026B3CD080B45C
:1001900005D08084010E0F01036F046B34D080B64C
:1001A00005D08086010E0F01056F066B2CD080B83C
:1001B00005D08088010E0F01076F086B24D080B234
:1001C00005D08082010E0F01016F026B80B405D053
:1001D0008084010E0F01036F046B80B605D080860A
:1001E000010E0F01056F066B80B805D08088010EE7
:1001F0000F01076F086B80BA05D0808A010E0F01CE
:10020000096F0A6B00D080A0808012003F0E80141E
:100210000F01156F1551030A10E0060A0EE00C0AD3
:100220000CE0180A0AE0300A08E0660E0F01165DBD
:1002300006E04F0E165D04E102D04DD802D04BD837
:1002400000D00F011651660A30E0290A2EE02A0A72
:1002500027E0200A25E0210A1EE0200A1CE0270AE8
:1002600015E0200A13E0210A0CE0200A0AE0230A24
:1002700003E0200A01E02ED080920F01016B026B97
:1002800029D080940F01036B046B24D080960F015A
:10029000056B066B1FD080980F01076B086B1AD097
:1002A000809A0F01096B0A6B15D08092809480961A
:1002B0008098809A0F01016B026B0F01036B046B36
:1002C0000F01056B066B0F01076B086B0F01096BC4
:1002D0000A6B00D012008090C80EE66EEDEC01F0C3
:1002E000E552C80EE66EEDEC01F0E5521200D9CFF2
:1002F000E6FFE1CFD9FFACA2FED7FE0EDB50AD6E1C
:08030000E552E7CFD9FF12001E
:08030800480EF66E010EF76EBF
:10031000000EF86E0F010900F550106F0900F5503E
:10032000116F03E1106701D03DD00900F5500B6F4C
:100330000900F5500C6F0900F5500D6F0900090018
:10034000F550E96E0900F550EA6E09000900090050
:10035000F5500E6F0900F5500F6F09000900F6CF38
:1003600012FFF7CF13FFF8CF14FF0BCFF6FF0CCF20
:10037000F7FF0DCFF8FF0F010E5302E10F5307E017
:100380000900F550EE6E0E07F8E20F07F9D712CF0D
:10039000F6FF13CFF7FF14CFF8FF0F011007000E81
:0603A000115BBFD7120043
:0A03A600D19011EC02F004EC02F01B
:1003B000F28ED58E7E6AC00E926E806AD1900F0149
:1003C000005109E0ABEC00F016CFE6FF77EC01F04E
:0A03D000E5520F01006BF2D7120096
:0603DA00FF0EE350036E6C
:1003E000EF0E01D0F30EE76EE72EF4EF01F00C0EE6
:1003F000026EE76AE72EFAEF01F0022EF9EF01F044
:08040000032EF2EF01F01200DF
:08040800190EAF6EAC84B8962A
:10041000948C948EAB8EAC98AC8A9D8A9F8AAB8864
:100420001200040ED56EE00EF26EDC0ED66E0B0ED0
:04043000D76E120071
:0C043400600EF36E00EE00F00F0E01D819
:100440001200EA6002D0EE6AFCD7F350E9601200B5
:04045000EE6AFCD77D
:0C0454001EEE00F02EEE00F0F86A019C95
:1004600084EC01F003EC00F0D3EC01F0FBD71200B8
:0B047000000000000000000000000081
:020000040030CA
:0100010002FC
:010002000EEF
:0100030012EA
:010005008476
:010006008178
:00000001FF
